{
  "contractName": "diaryList",
  "abi": [
    {
      "anonymous": false,
      "inputs": [
        {
          "indexed": false,
          "internalType": "uint256",
          "name": "id",
          "type": "uint256"
        },
        {
          "indexed": false,
          "internalType": "uint256",
          "name": "date",
          "type": "uint256"
        },
        {
          "indexed": false,
          "internalType": "string",
          "name": "title",
          "type": "string"
        },
        {
          "indexed": false,
          "internalType": "string",
          "name": "content",
          "type": "string"
        },
        {
          "indexed": false,
          "internalType": "uint256",
          "name": "score",
          "type": "uint256"
        }
      ],
      "name": "entryCreated",
      "type": "event"
    },
    {
      "anonymous": false,
      "inputs": [
        {
          "indexed": false,
          "internalType": "uint256",
          "name": "id",
          "type": "uint256"
        },
        {
          "indexed": false,
          "internalType": "string",
          "name": "title",
          "type": "string"
        },
        {
          "indexed": false,
          "internalType": "string",
          "name": "content",
          "type": "string"
        },
        {
          "indexed": false,
          "internalType": "uint256",
          "name": "score",
          "type": "uint256"
        }
      ],
      "name": "entryUpdated",
      "type": "event"
    },
    {
      "inputs": [
        {
          "internalType": "uint256",
          "name": "",
          "type": "uint256"
        }
      ],
      "name": "diaryEntries",
      "outputs": [
        {
          "internalType": "uint256",
          "name": "id",
          "type": "uint256"
        },
        {
          "internalType": "uint256",
          "name": "date",
          "type": "uint256"
        },
        {
          "internalType": "string",
          "name": "title",
          "type": "string"
        },
        {
          "internalType": "string",
          "name": "content",
          "type": "string"
        },
        {
          "internalType": "uint256",
          "name": "score",
          "type": "uint256"
        },
        {
          "internalType": "address",
          "name": "user_address",
          "type": "address"
        }
      ],
      "stateMutability": "view",
      "type": "function",
      "constant": true
    },
    {
      "inputs": [
        {
          "internalType": "string",
          "name": "_title",
          "type": "string"
        },
        {
          "internalType": "string",
          "name": "_content",
          "type": "string"
        },
        {
          "internalType": "uint256",
          "name": "_score",
          "type": "uint256"
        }
      ],
      "name": "newEntry",
      "outputs": [],
      "stateMutability": "nonpayable",
      "type": "function"
    },
    {
      "inputs": [],
      "name": "showListEntries",
      "outputs": [
        {
          "components": [
            {
              "internalType": "uint256",
              "name": "id",
              "type": "uint256"
            },
            {
              "internalType": "uint256",
              "name": "date",
              "type": "uint256"
            },
            {
              "internalType": "string",
              "name": "title",
              "type": "string"
            },
            {
              "internalType": "string",
              "name": "content",
              "type": "string"
            },
            {
              "internalType": "uint256",
              "name": "score",
              "type": "uint256"
            },
            {
              "internalType": "address",
              "name": "user_address",
              "type": "address"
            }
          ],
          "internalType": "struct diaryList.diaryEntry[]",
          "name": "",
          "type": "tuple[]"
        }
      ],
      "stateMutability": "view",
      "type": "function",
      "constant": true
    },
    {
      "inputs": [
        {
          "internalType": "uint256",
          "name": "_id",
          "type": "uint256"
        },
        {
          "internalType": "string",
          "name": "_title",
          "type": "string"
        },
        {
          "internalType": "string",
          "name": "_content",
          "type": "string"
        },
        {
          "internalType": "uint256",
          "name": "_score",
          "type": "uint256"
        }
      ],
      "name": "updateEntry",
      "outputs": [],
      "stateMutability": "nonpayable",
      "type": "function"
    }
  ],
  "bytecode": "0x60806040526000805534801561001457600080fd5b506112ef806100246000396000f3fe608060405234801561001057600080fd5b506004361061004c5760003560e01c80630945738714610051578063225cfc7f1461008657806374dc4257146100a4578063b5d24d99146100c0575b600080fd5b61006b60048036038101906100669190610aa0565b6100dc565b60405161007d96959493929190610ec2565b60405180910390f35b61008e610248565b60405161009b9190610d8c565b60405180910390f35b6100be60048036038101906100b99190610ac9565b6104eb565b005b6100da60048036038101906100d59190610a21565b61067e565b005b600160205280600052604060002060009150905080600001549080600101549080600201805461010b9061106b565b80601f01602080910402602001604051908101604052809291908181526020018280546101379061106b565b80156101845780601f1061015957610100808354040283529160200191610184565b820191906000526020600020905b81548152906001019060200180831161016757829003601f168201915b5050505050908060030180546101999061106b565b80601f01602080910402602001604051908101604052809291908181526020018280546101c59061106b565b80156102125780601f106101e757610100808354040283529160200191610212565b820191906000526020600020905b8154815290600101906020018083116101f557829003601f168201915b5050505050908060040154908060050160009054906101000a900473ffffffffffffffffffffffffffffffffffffffff16905086565b60606000805467ffffffffffffffff81111561028d577f4e487b7100000000000000000000000000000000000000000000000000000000600052604160045260246000fd5b6040519080825280602002602001820160405280156102c657816020015b6102b36108b5565b8152602001906001900390816102ab5790505b50905060005b6000548110156104e357600160008281526020019081526020016000206040518060c001604052908160008201548152602001600182015481526020016002820180546103189061106b565b80601f01602080910402602001604051908101604052809291908181526020018280546103449061106b565b80156103915780601f1061036657610100808354040283529160200191610391565b820191906000526020600020905b81548152906001019060200180831161037457829003601f168201915b505050505081526020016003820180546103aa9061106b565b80601f01602080910402602001604051908101604052809291908181526020018280546103d69061106b565b80156104235780601f106103f857610100808354040283529160200191610423565b820191906000526020600020905b81548152906001019060200180831161040657829003601f168201915b50505050508152602001600482015481526020016005820160009054906101000a900473ffffffffffffffffffffffffffffffffffffffff1673ffffffffffffffffffffffffffffffffffffffff1673ffffffffffffffffffffffffffffffffffffffff16815250508282815181106104c5577f4e487b7100000000000000000000000000000000000000000000000000000000600052603260045260246000fd5b602002602001018190525080806104db906110ce565b9150506102cc565b508091505090565b80600081101580156104fe575060058111155b61053d576040517f08c379a000000000000000000000000000000000000000000000000000000000815260040161053490610dae565b60405180910390fd5b83836000825111610583576040517f08c379a000000000000000000000000000000000000000000000000000000000815260040161057a90610dce565b60405180910390fd5b60008151116105c7576040517f08c379a00000000000000000000000000000000000000000000000000000000081526004016105be90610dee565b60405180910390fd5b856001600089815260200190815260200160002060020190805190602001906105f1929190610901565b508460016000898152602001908152602001600020600301908051906020019061061c929190610901565b508360016000898152602001908152602001600020600401819055507f9ed8ac98d6ad079cf8a09311939f8f57491a1611691fc49eeff7a801254533018787878760405161066d9493929190610e0e565b60405180910390a150505050505050565b8060008110158015610691575060058111155b6106d0576040517f08c379a00000000000000000000000000000000000000000000000000000000081526004016106c790610dae565b60405180910390fd5b83836000825111610716576040517f08c379a000000000000000000000000000000000000000000000000000000000815260040161070d90610dce565b60405180910390fd5b600081511161075a576040517f08c379a000000000000000000000000000000000000000000000000000000000815260040161075190610dee565b60405180910390fd5b6040518060c0016040528060005481526020014281526020018781526020018681526020018581526020013373ffffffffffffffffffffffffffffffffffffffff168152506001600080548152602001908152602001600020600082015181600001556020820151816001015560408201518160020190805190602001906107e3929190610901565b506060820151816003019080519060200190610800929190610901565b506080820151816004015560a08201518160050160006101000a81548173ffffffffffffffffffffffffffffffffffffffff021916908373ffffffffffffffffffffffffffffffffffffffff160217905550905050600080815480929190610867906110ce565b91905055507fce837d0ada663aabc0e0ec8a79d01d18250195c3ab9d2fb5069524303e363999600054428888886040516108a5959493929190610e61565b60405180910390a1505050505050565b6040518060c001604052806000815260200160008152602001606081526020016060815260200160008152602001600073ffffffffffffffffffffffffffffffffffffffff1681525090565b82805461090d9061106b565b90600052602060002090601f01602090048101928261092f5760008555610976565b82601f1061094857805160ff1916838001178555610976565b82800160010185558215610976579182015b8281111561097557825182559160200191906001019061095a565b5b5090506109839190610987565b5090565b5b808211156109a0576000816000905550600101610988565b5090565b60006109b76109b284610f56565b610f31565b9050828152602081018484840111156109cf57600080fd5b6109da848285611029565b509392505050565b600082601f8301126109f357600080fd5b8135610a038482602086016109a4565b91505092915050565b600081359050610a1b816112a2565b92915050565b600080600060608486031215610a3657600080fd5b600084013567ffffffffffffffff811115610a5057600080fd5b610a5c868287016109e2565b935050602084013567ffffffffffffffff811115610a7957600080fd5b610a85868287016109e2565b9250506040610a9686828701610a0c565b9150509250925092565b600060208284031215610ab257600080fd5b6000610ac084828501610a0c565b91505092915050565b60008060008060808587031215610adf57600080fd5b6000610aed87828801610a0c565b945050602085013567ffffffffffffffff811115610b0a57600080fd5b610b16878288016109e2565b935050604085013567ffffffffffffffff811115610b3357600080fd5b610b3f878288016109e2565b9250506060610b5087828801610a0c565b91505092959194509250565b6000610b688383610cde565b905092915050565b610b7981610fed565b82525050565b610b8881610fed565b82525050565b6000610b9982610f97565b610ba38185610fba565b935083602082028501610bb585610f87565b8060005b85811015610bf15784840389528151610bd28582610b5c565b9450610bdd83610fad565b925060208a01995050600181019050610bb9565b50829750879550505050505092915050565b6000610c0e82610fa2565b610c188185610fcb565b9350610c28818560208601611038565b610c31816111a4565b840191505092915050565b6000610c4782610fa2565b610c518185610fdc565b9350610c61818560208601611038565b610c6a816111a4565b840191505092915050565b6000610c82602183610fdc565b9150610c8d826111b5565b604082019050919050565b6000610ca5602283610fdc565b9150610cb082611204565b604082019050919050565b6000610cc8602483610fdc565b9150610cd382611253565b604082019050919050565b600060c083016000830151610cf66000860182610d6e565b506020830151610d096020860182610d6e565b5060408301518482036040860152610d218282610c03565b91505060608301518482036060860152610d3b8282610c03565b9150506080830151610d506080860182610d6e565b5060a0830151610d6360a0860182610b70565b508091505092915050565b610d778161101f565b82525050565b610d868161101f565b82525050565b60006020820190508181036000830152610da68184610b8e565b905092915050565b60006020820190508181036000830152610dc781610c75565b9050919050565b60006020820190508181036000830152610de781610c98565b9050919050565b60006020820190508181036000830152610e0781610cbb565b9050919050565b6000608082019050610e236000830187610d7d565b8181036020830152610e358186610c3c565b90508181036040830152610e498185610c3c565b9050610e586060830184610d7d565b95945050505050565b600060a082019050610e766000830188610d7d565b610e836020830187610d7d565b8181036040830152610e958186610c3c565b90508181036060830152610ea98185610c3c565b9050610eb86080830184610d7d565b9695505050505050565b600060c082019050610ed76000830189610d7d565b610ee46020830188610d7d565b8181036040830152610ef68187610c3c565b90508181036060830152610f0a8186610c3c565b9050610f196080830185610d7d565b610f2660a0830184610b7f565b979650505050505050565b6000610f3b610f4c565b9050610f47828261109d565b919050565b6000604051905090565b600067ffffffffffffffff821115610f7157610f70611175565b5b610f7a826111a4565b9050602081019050919050565b6000819050602082019050919050565b600081519050919050565b600081519050919050565b6000602082019050919050565b600082825260208201905092915050565b600082825260208201905092915050565b600082825260208201905092915050565b6000610ff882610fff565b9050919050565b600073ffffffffffffffffffffffffffffffffffffffff82169050919050565b6000819050919050565b82818337600083830152505050565b60005b8381101561105657808201518184015260208101905061103b565b83811115611065576000848401525b50505050565b6000600282049050600182168061108357607f821691505b6020821081141561109757611096611146565b5b50919050565b6110a6826111a4565b810181811067ffffffffffffffff821117156110c5576110c4611175565b5b80604052505050565b60006110d98261101f565b91507fffffffffffffffffffffffffffffffffffffffffffffffffffffffffffffffff82141561110c5761110b611117565b5b600182019050919050565b7f4e487b7100000000000000000000000000000000000000000000000000000000600052601160045260246000fd5b7f4e487b7100000000000000000000000000000000000000000000000000000000600052602260045260246000fd5b7f4e487b7100000000000000000000000000000000000000000000000000000000600052604160045260246000fd5b6000601f19601f8301169050919050565b7f4e6f742076616c69642073636f72652e204f6e6c7920616c6c6f773a20312d3560008201527f2e00000000000000000000000000000000000000000000000000000000000000602082015250565b7f4e6f742076616c6964207469746c652e204d75737420636f6e7461696e206f6e60008201527f652e000000000000000000000000000000000000000000000000000000000000602082015250565b7f4e6f742076616c696420636f6e74656e742e204d75737420636f6e7461696e2060008201527f6f6e652e00000000000000000000000000000000000000000000000000000000602082015250565b6112ab8161101f565b81146112b657600080fd5b5056fea2646970667358221220ff731b45a9e2370dd11cb3322f02c4074ae3c26e0179d8f4695fb1695fecbcf564736f6c63430008040033",
  "immutableReferences": {},
  "source": "// SPDX-License-Identifier: MIT\npragma solidity >=0.4.22 <0.9.0;\npragma experimental ABIEncoderV2;\n\ncontract diaryList {\n    // Counter for Diary entries\n    uint256 private entryCounter = 0;\n\n    // Struct for Diary\n    struct diaryEntry {\n        uint256 id;\n        uint256 date;\n        string title;\n        string content;\n        uint256 score;\n        address user_address;\n    }\n\n    // Map of Diary entries\n    mapping(uint256 => diaryEntry) public diaryEntries;\n\n    // Event when Diary entry is created\n    event entryCreated(\n        uint256 id,\n        uint256 date,\n        string title,\n        string content,\n        uint256 score\n    );\n\n    event entryUpdated(uint256 id, string title, string content, uint256 score);\n\n    // modifier functions that is executed before rest of code\n    // it validates that fields (title & content) are not empty\n    modifier emptyString(string memory _title, string memory _content) {\n        require(bytes(_title).length > 0, \"Not valid title. Must contain one.\");\n        require(\n            bytes(_content).length > 0,\n            \"Not valid content. Must contain one.\"\n        );\n        _;\n    }\n\n    // modifier functions that is executed before rest of code\n    // it validates that score is between 1 to 5 (both included)\n    modifier validScore(uint256 _score) {\n        require(\n            _score >= 0 && _score <= 5,\n            \"Not valid score. Only allow: 1-5.\"\n        );\n        _;\n    }\n\n    // newEntry: Functions that create new entry in Diary\n    function newEntry(\n        string memory _title,\n        string memory _content,\n        uint256 _score\n    ) public validScore(_score) emptyString(_title, _content) {\n        diaryEntries[entryCounter] = diaryEntry(\n            entryCounter,\n            block.timestamp,\n            _title,\n            _content,\n            _score,\n            msg.sender\n        );\n        entryCounter++;\n        emit entryCreated(\n            entryCounter,\n            block.timestamp,\n            _title,\n            _content,\n            _score\n        );\n    }\n\n    // ShowListEntries: Functions that show all Diary entries\n    function showListEntries() public view returns (diaryEntry[] memory) {\n        diaryEntry[] memory _entries = new diaryEntry[](entryCounter);\n        for (uint256 i = 0; i < entryCounter; i++) {\n            _entries[i] = diaryEntries[i];\n        }\n        return _entries;\n    }\n\n    // UpdateEntry: Functions that updates specific Entries from Diary)\n    function updateEntry(\n        uint256 _id,\n        string memory _title,\n        string memory _content,\n        uint256 _score\n    ) public validScore(_score) emptyString(_title, _content) {\n        diaryEntries[_id].title = _title;\n        diaryEntries[_id].content = _content;\n        diaryEntries[_id].score = _score;\n        emit entryUpdated(_id, _title, _content, _score);\n    }\n}\n",
  "sourcePath": "C:/Users/Enrico/Desktop/Projects/x20132484_BAD_CA1/contracts/diaryList.sol",
  "compiler": {
    "name": "solc",
    "version": "0.8.4+commit.c7e474f2.Emscripten.clang"
  },
  "schemaVersion": "3.4.1",
  "updatedAt": "2021-08-03T08:08:54.127Z",
  "networkType": "ethereum",
  "devdoc": {
    "kind": "dev",
    "methods": {},
    "version": 1
  },
  "userdoc": {
    "kind": "user",
    "methods": {},
    "version": 1
  }
}