{
  "contractName": "journalList",
  "abi": [
    {
      "anonymous": false,
      "inputs": [
        {
          "indexed": false,
          "internalType": "uint256",
          "name": "id",
          "type": "uint256"
        },
        {
          "indexed": false,
          "internalType": "uint256",
          "name": "date",
          "type": "uint256"
        },
        {
          "indexed": false,
          "internalType": "string",
          "name": "title",
          "type": "string"
        },
        {
          "indexed": false,
          "internalType": "string",
          "name": "content",
          "type": "string"
        },
        {
          "indexed": false,
          "internalType": "uint256",
          "name": "score",
          "type": "uint256"
        }
      ],
      "name": "entryCreated",
      "type": "event"
    },
    {
      "anonymous": false,
      "inputs": [
        {
          "indexed": false,
          "internalType": "uint256",
          "name": "id",
          "type": "uint256"
        },
        {
          "indexed": false,
          "internalType": "string",
          "name": "title",
          "type": "string"
        },
        {
          "indexed": false,
          "internalType": "string",
          "name": "content",
          "type": "string"
        },
        {
          "indexed": false,
          "internalType": "uint256",
          "name": "score",
          "type": "uint256"
        }
      ],
      "name": "entryUpdated",
      "type": "event"
    },
    {
      "inputs": [
        {
          "internalType": "uint256",
          "name": "",
          "type": "uint256"
        }
      ],
      "name": "journalEntries",
      "outputs": [
        {
          "internalType": "uint256",
          "name": "id",
          "type": "uint256"
        },
        {
          "internalType": "uint256",
          "name": "date",
          "type": "uint256"
        },
        {
          "internalType": "string",
          "name": "title",
          "type": "string"
        },
        {
          "internalType": "string",
          "name": "content",
          "type": "string"
        },
        {
          "internalType": "uint256",
          "name": "score",
          "type": "uint256"
        },
        {
          "internalType": "address",
          "name": "user_address",
          "type": "address"
        }
      ],
      "stateMutability": "view",
      "type": "function",
      "constant": true
    },
    {
      "inputs": [
        {
          "internalType": "string",
          "name": "_title",
          "type": "string"
        },
        {
          "internalType": "string",
          "name": "_content",
          "type": "string"
        },
        {
          "internalType": "uint256",
          "name": "_score",
          "type": "uint256"
        }
      ],
      "name": "newEntry",
      "outputs": [],
      "stateMutability": "nonpayable",
      "type": "function"
    },
    {
      "inputs": [],
      "name": "showListEntries",
      "outputs": [
        {
          "components": [
            {
              "internalType": "uint256",
              "name": "id",
              "type": "uint256"
            },
            {
              "internalType": "uint256",
              "name": "date",
              "type": "uint256"
            },
            {
              "internalType": "string",
              "name": "title",
              "type": "string"
            },
            {
              "internalType": "string",
              "name": "content",
              "type": "string"
            },
            {
              "internalType": "uint256",
              "name": "score",
              "type": "uint256"
            },
            {
              "internalType": "address",
              "name": "user_address",
              "type": "address"
            }
          ],
          "internalType": "struct journalList.journalEntry[]",
          "name": "",
          "type": "tuple[]"
        }
      ],
      "stateMutability": "view",
      "type": "function",
      "constant": true
    },
    {
      "inputs": [
        {
          "internalType": "uint256",
          "name": "_id",
          "type": "uint256"
        },
        {
          "internalType": "string",
          "name": "_title",
          "type": "string"
        },
        {
          "internalType": "string",
          "name": "_content",
          "type": "string"
        },
        {
          "internalType": "uint256",
          "name": "_score",
          "type": "uint256"
        }
      ],
      "name": "updateEntry",
      "outputs": [],
      "stateMutability": "nonpayable",
      "type": "function"
    }
  ],
  "bytecode": "0x60806040526000805534801561001457600080fd5b50611210806100246000396000f3fe608060405234801561001057600080fd5b506004361061004c5760003560e01c8063225cfc7f1461005157806374dc42571461006f578063b5d24d991461008b578063d83fe9f5146100a7575b600080fd5b6100596100dc565b6040516100669190610cad565b60405180910390f35b610089600480360381019061008491906109ea565b61037f565b005b6100a560048036038101906100a09190610942565b610433565b005b6100c160048036038101906100bc91906109c1565b61066a565b6040516100d396959493929190610de3565b60405180910390f35b60606000805467ffffffffffffffff811115610121577f4e487b7100000000000000000000000000000000000000000000000000000000600052604160045260246000fd5b60405190808252806020026020018201604052801561015a57816020015b6101476107d6565b81526020019060019003908161013f5790505b50905060005b60005481101561037757600160008281526020019081526020016000206040518060c001604052908160008201548152602001600182015481526020016002820180546101ac90610f8c565b80601f01602080910402602001604051908101604052809291908181526020018280546101d890610f8c565b80156102255780601f106101fa57610100808354040283529160200191610225565b820191906000526020600020905b81548152906001019060200180831161020857829003601f168201915b5050505050815260200160038201805461023e90610f8c565b80601f016020809104026020016040519081016040528092919081815260200182805461026a90610f8c565b80156102b75780601f1061028c576101008083540402835291602001916102b7565b820191906000526020600020905b81548152906001019060200180831161029a57829003601f168201915b50505050508152602001600482015481526020016005820160009054906101000a900473ffffffffffffffffffffffffffffffffffffffff1673ffffffffffffffffffffffffffffffffffffffff1673ffffffffffffffffffffffffffffffffffffffff1681525050828281518110610359577f4e487b7100000000000000000000000000000000000000000000000000000000600052603260045260246000fd5b6020026020010181905250808061036f90610fef565b915050610160565b508091505090565b826001600086815260200190815260200160002060020190805190602001906103a9929190610822565b50816001600086815260200190815260200160002060030190805190602001906103d4929190610822565b508060016000868152602001908152602001600020600401819055507f9ed8ac98d6ad079cf8a09311939f8f57491a1611691fc49eeff7a80125453301848484846040516104259493929190610d2f565b60405180910390a150505050565b80600081101580156104465750600a8111155b610485576040517f08c379a000000000000000000000000000000000000000000000000000000000815260040161047c90610ccf565b60405180910390fd5b838360008251116104cb576040517f08c379a00000000000000000000000000000000000000000000000000000000081526004016104c290610cef565b60405180910390fd5b600081511161050f576040517f08c379a000000000000000000000000000000000000000000000000000000000815260040161050690610d0f565b60405180910390fd5b6040518060c0016040528060005481526020014281526020018781526020018681526020018581526020013373ffffffffffffffffffffffffffffffffffffffff16815250600160008054815260200190815260200160002060008201518160000155602082015181600101556040820151816002019080519060200190610598929190610822565b5060608201518160030190805190602001906105b5929190610822565b506080820151816004015560a08201518160050160006101000a81548173ffffffffffffffffffffffffffffffffffffffff021916908373ffffffffffffffffffffffffffffffffffffffff16021790555090505060008081548092919061061c90610fef565b91905055507fce837d0ada663aabc0e0ec8a79d01d18250195c3ab9d2fb5069524303e3639996000544288888860405161065a959493929190610d82565b60405180910390a1505050505050565b600160205280600052604060002060009150905080600001549080600101549080600201805461069990610f8c565b80601f01602080910402602001604051908101604052809291908181526020018280546106c590610f8c565b80156107125780601f106106e757610100808354040283529160200191610712565b820191906000526020600020905b8154815290600101906020018083116106f557829003601f168201915b50505050509080600301805461072790610f8c565b80601f016020809104026020016040519081016040528092919081815260200182805461075390610f8c565b80156107a05780601f10610775576101008083540402835291602001916107a0565b820191906000526020600020905b81548152906001019060200180831161078357829003601f168201915b5050505050908060040154908060050160009054906101000a900473ffffffffffffffffffffffffffffffffffffffff16905086565b6040518060c001604052806000815260200160008152602001606081526020016060815260200160008152602001600073ffffffffffffffffffffffffffffffffffffffff1681525090565b82805461082e90610f8c565b90600052602060002090601f0160209004810192826108505760008555610897565b82601f1061086957805160ff1916838001178555610897565b82800160010185558215610897579182015b8281111561089657825182559160200191906001019061087b565b5b5090506108a491906108a8565b5090565b5b808211156108c15760008160009055506001016108a9565b5090565b60006108d86108d384610e77565b610e52565b9050828152602081018484840111156108f057600080fd5b6108fb848285610f4a565b509392505050565b600082601f83011261091457600080fd5b81356109248482602086016108c5565b91505092915050565b60008135905061093c816111c3565b92915050565b60008060006060848603121561095757600080fd5b600084013567ffffffffffffffff81111561097157600080fd5b61097d86828701610903565b935050602084013567ffffffffffffffff81111561099a57600080fd5b6109a686828701610903565b92505060406109b78682870161092d565b9150509250925092565b6000602082840312156109d357600080fd5b60006109e18482850161092d565b91505092915050565b60008060008060808587031215610a0057600080fd5b6000610a0e8782880161092d565b945050602085013567ffffffffffffffff811115610a2b57600080fd5b610a3787828801610903565b935050604085013567ffffffffffffffff811115610a5457600080fd5b610a6087828801610903565b9250506060610a718782880161092d565b91505092959194509250565b6000610a898383610bff565b905092915050565b610a9a81610f0e565b82525050565b610aa981610f0e565b82525050565b6000610aba82610eb8565b610ac48185610edb565b935083602082028501610ad685610ea8565b8060005b85811015610b125784840389528151610af38582610a7d565b9450610afe83610ece565b925060208a01995050600181019050610ada565b50829750879550505050505092915050565b6000610b2f82610ec3565b610b398185610eec565b9350610b49818560208601610f59565b610b52816110c5565b840191505092915050565b6000610b6882610ec3565b610b728185610efd565b9350610b82818560208601610f59565b610b8b816110c5565b840191505092915050565b6000610ba3602283610efd565b9150610bae826110d6565b604082019050919050565b6000610bc6602283610efd565b9150610bd182611125565b604082019050919050565b6000610be9602483610efd565b9150610bf482611174565b604082019050919050565b600060c083016000830151610c176000860182610c8f565b506020830151610c2a6020860182610c8f565b5060408301518482036040860152610c428282610b24565b91505060608301518482036060860152610c5c8282610b24565b9150506080830151610c716080860182610c8f565b5060a0830151610c8460a0860182610a91565b508091505092915050565b610c9881610f40565b82525050565b610ca781610f40565b82525050565b60006020820190508181036000830152610cc78184610aaf565b905092915050565b60006020820190508181036000830152610ce881610b96565b9050919050565b60006020820190508181036000830152610d0881610bb9565b9050919050565b60006020820190508181036000830152610d2881610bdc565b9050919050565b6000608082019050610d446000830187610c9e565b8181036020830152610d568186610b5d565b90508181036040830152610d6a8185610b5d565b9050610d796060830184610c9e565b95945050505050565b600060a082019050610d976000830188610c9e565b610da46020830187610c9e565b8181036040830152610db68186610b5d565b90508181036060830152610dca8185610b5d565b9050610dd96080830184610c9e565b9695505050505050565b600060c082019050610df86000830189610c9e565b610e056020830188610c9e565b8181036040830152610e178187610b5d565b90508181036060830152610e2b8186610b5d565b9050610e3a6080830185610c9e565b610e4760a0830184610aa0565b979650505050505050565b6000610e5c610e6d565b9050610e688282610fbe565b919050565b6000604051905090565b600067ffffffffffffffff821115610e9257610e91611096565b5b610e9b826110c5565b9050602081019050919050565b6000819050602082019050919050565b600081519050919050565b600081519050919050565b6000602082019050919050565b600082825260208201905092915050565b600082825260208201905092915050565b600082825260208201905092915050565b6000610f1982610f20565b9050919050565b600073ffffffffffffffffffffffffffffffffffffffff82169050919050565b6000819050919050565b82818337600083830152505050565b60005b83811015610f77578082015181840152602081019050610f5c565b83811115610f86576000848401525b50505050565b60006002820490506001821680610fa457607f821691505b60208210811415610fb857610fb7611067565b5b50919050565b610fc7826110c5565b810181811067ffffffffffffffff82111715610fe657610fe5611096565b5b80604052505050565b6000610ffa82610f40565b91507fffffffffffffffffffffffffffffffffffffffffffffffffffffffffffffffff82141561102d5761102c611038565b5b600182019050919050565b7f4e487b7100000000000000000000000000000000000000000000000000000000600052601160045260246000fd5b7f4e487b7100000000000000000000000000000000000000000000000000000000600052602260045260246000fd5b7f4e487b7100000000000000000000000000000000000000000000000000000000600052604160045260246000fd5b6000601f19601f8301169050919050565b7f4e6f742076616c69642073636f72652e204f6e6c7920616c6c6f773a20312d3160008201527f302e000000000000000000000000000000000000000000000000000000000000602082015250565b7f4e6f742076616c6964207469746c652e204d75737420636f6e7461696e206f6e60008201527f652e000000000000000000000000000000000000000000000000000000000000602082015250565b7f4e6f742076616c696420636f6e74656e742e204d75737420636f6e7461696e2060008201527f6f6e652e00000000000000000000000000000000000000000000000000000000602082015250565b6111cc81610f40565b81146111d757600080fd5b5056fea26469706673582212206c229ef38fa85feb751c6e20a094d8ea66c853887b622c67894cc86bbeacb60964736f6c63430008040033",
  "immutableReferences": {},
  "source": "// SPDX-License-Identifier: MIT\npragma solidity >=0.4.22 <0.9.0;\npragma experimental ABIEncoderV2;\n\ncontract journalList {\n    uint256 private entryCounter = 0;\n\n    struct journalEntry {\n        uint256 id;\n        uint256 date;\n        string title;\n        string content;\n        uint256 score;\n        address user_address;\n    }\n\n    mapping(uint256 => journalEntry) public journalEntries;\n\n    event entryCreated(\n        uint256 id,\n        uint256 date,\n        string title,\n        string content,\n        uint256 score\n    );\n\n    event entryUpdated(uint256 id, string title, string content, uint256 score);\n\n    // modifier functions that is executed before rest of code\n    // it validates that score is between 1 to 10 (both included)\n    modifier emptyString(string memory _title, string memory _content) {\n        require(bytes(_title).length > 0, \"Not valid title. Must contain one.\");\n        require(\n            bytes(_content).length > 0,\n            \"Not valid content. Must contain one.\"\n        );\n        _;\n    }\n\n    // modifier functions that is executed before rest of code\n    // it validates that score is between 1 to 10 (both included)\n    modifier validScore(uint256 _score) {\n        require(\n            _score >= 0 && _score <= 10,\n            \"Not valid score. Only allow: 1-10.\"\n        );\n        _;\n    }\n\n    function newEntry(\n        string memory _title,\n        string memory _content,\n        uint256 _score\n    ) public validScore(_score) emptyString(_title, _content) {\n        journalEntries[entryCounter] = journalEntry(\n            entryCounter,\n            block.timestamp,\n            _title,\n            _content,\n            _score,\n            msg.sender\n        );\n        entryCounter++;\n        emit entryCreated(\n            entryCounter,\n            block.timestamp,\n            _title,\n            _content,\n            _score\n        );\n    }\n\n    function showListEntries() public view returns (journalEntry[] memory) {\n        journalEntry[] memory _entries = new journalEntry[](entryCounter);\n        for (uint256 i = 0; i < entryCounter; i++) {\n            _entries[i] = journalEntries[i];\n        }\n        return _entries;\n    }\n\n    function updateEntry(\n        uint256 _id,\n        string memory _title,\n        string memory _content,\n        uint256 _score\n    ) public {\n        journalEntries[_id].title = _title;\n        journalEntries[_id].content = _content;\n        journalEntries[_id].score = _score;\n        emit entryUpdated(_id, _title, _content, _score);\n    }\n}\n",
  "sourcePath": "C:/Users/Enrico/Desktop/Projects/x20132484_BAD_CA1/contracts/journalList.sol",
  "compiler": {
    "name": "solc",
    "version": "0.8.4+commit.c7e474f2.Emscripten.clang"
  },
  "schemaVersion": "3.4.1",
  "updatedAt": "2021-07-27T10:57:12.476Z",
  "networkType": "ethereum",
  "devdoc": {
    "kind": "dev",
    "methods": {},
    "version": 1
  },
  "userdoc": {
    "kind": "user",
    "methods": {},
    "version": 1
  }
}